{
  "_format": "hh-sol-artifact-1",
  "contractName": "MultiSigWallet",
  "sourceName": "contracts/MultiSigWallet.sol",
  "abi": [
    {
      "inputs": [
        {
          "internalType": "address[]",
          "name": "_owners",
          "type": "address[]"
        },
        {
          "internalType": "uint256",
          "name": "_numConfirmationsRequired",
          "type": "uint256"
        }
      ],
      "stateMutability": "nonpayable",
      "type": "constructor"
    },
    {
      "anonymous": false,
      "inputs": [
        {
          "indexed": true,
          "internalType": "address",
          "name": "owner",
          "type": "address"
        },
        {
          "indexed": true,
          "internalType": "uint256",
          "name": "txIndex",
          "type": "uint256"
        }
      ],
      "name": "ConfirmTransaction",
      "type": "event"
    },
    {
      "anonymous": false,
      "inputs": [
        {
          "indexed": true,
          "internalType": "address",
          "name": "sender",
          "type": "address"
        },
        {
          "indexed": false,
          "internalType": "uint256",
          "name": "amount",
          "type": "uint256"
        },
        {
          "indexed": false,
          "internalType": "uint256",
          "name": "balance",
          "type": "uint256"
        }
      ],
      "name": "Deposit",
      "type": "event"
    },
    {
      "anonymous": false,
      "inputs": [
        {
          "indexed": true,
          "internalType": "address",
          "name": "owner",
          "type": "address"
        },
        {
          "indexed": true,
          "internalType": "uint256",
          "name": "txIndex",
          "type": "uint256"
        }
      ],
      "name": "ExecuteTransaction",
      "type": "event"
    },
    {
      "anonymous": false,
      "inputs": [
        {
          "indexed": true,
          "internalType": "address",
          "name": "owner",
          "type": "address"
        }
      ],
      "name": "OwnerAddition",
      "type": "event"
    },
    {
      "anonymous": false,
      "inputs": [
        {
          "indexed": true,
          "internalType": "address",
          "name": "owner",
          "type": "address"
        }
      ],
      "name": "OwnerRemoval",
      "type": "event"
    },
    {
      "anonymous": false,
      "inputs": [
        {
          "indexed": false,
          "internalType": "uint256",
          "name": "required",
          "type": "uint256"
        }
      ],
      "name": "RequirementChange",
      "type": "event"
    },
    {
      "anonymous": false,
      "inputs": [
        {
          "indexed": true,
          "internalType": "address",
          "name": "owner",
          "type": "address"
        },
        {
          "indexed": true,
          "internalType": "uint256",
          "name": "txIndex",
          "type": "uint256"
        }
      ],
      "name": "RevokeConfirmation",
      "type": "event"
    },
    {
      "anonymous": false,
      "inputs": [
        {
          "indexed": true,
          "internalType": "address",
          "name": "owner",
          "type": "address"
        },
        {
          "indexed": true,
          "internalType": "uint256",
          "name": "txIndex",
          "type": "uint256"
        },
        {
          "indexed": true,
          "internalType": "address",
          "name": "to",
          "type": "address"
        },
        {
          "indexed": false,
          "internalType": "uint256",
          "name": "value",
          "type": "uint256"
        },
        {
          "indexed": false,
          "internalType": "bytes",
          "name": "data",
          "type": "bytes"
        }
      ],
      "name": "SubmitTransaction",
      "type": "event"
    },
    {
      "inputs": [
        {
          "internalType": "uint256",
          "name": "_txIndex",
          "type": "uint256"
        }
      ],
      "name": "confirmTransaction",
      "outputs": [],
      "stateMutability": "nonpayable",
      "type": "function"
    },
    {
      "inputs": [
        {
          "internalType": "uint256",
          "name": "_txIndex",
          "type": "uint256"
        }
      ],
      "name": "executeTransaction",
      "outputs": [],
      "stateMutability": "nonpayable",
      "type": "function"
    },
    {
      "inputs": [],
      "name": "getOwners",
      "outputs": [
        {
          "internalType": "address[]",
          "name": "",
          "type": "address[]"
        }
      ],
      "stateMutability": "view",
      "type": "function"
    },
    {
      "inputs": [
        {
          "internalType": "uint256",
          "name": "_txIndex",
          "type": "uint256"
        }
      ],
      "name": "getTransaction",
      "outputs": [
        {
          "internalType": "address",
          "name": "to",
          "type": "address"
        },
        {
          "internalType": "uint256",
          "name": "value",
          "type": "uint256"
        },
        {
          "internalType": "bytes",
          "name": "data",
          "type": "bytes"
        },
        {
          "internalType": "bool",
          "name": "executed",
          "type": "bool"
        },
        {
          "internalType": "uint256",
          "name": "numConfirmations",
          "type": "uint256"
        },
        {
          "internalType": "uint256",
          "name": "expirationTime",
          "type": "uint256"
        }
      ],
      "stateMutability": "view",
      "type": "function"
    },
    {
      "inputs": [],
      "name": "getTransactionCount",
      "outputs": [
        {
          "internalType": "uint256",
          "name": "",
          "type": "uint256"
        }
      ],
      "stateMutability": "view",
      "type": "function"
    },
    {
      "inputs": [
        {
          "internalType": "uint256",
          "name": "",
          "type": "uint256"
        },
        {
          "internalType": "address",
          "name": "",
          "type": "address"
        }
      ],
      "name": "isConfirmed",
      "outputs": [
        {
          "internalType": "bool",
          "name": "",
          "type": "bool"
        }
      ],
      "stateMutability": "view",
      "type": "function"
    },
    {
      "inputs": [
        {
          "internalType": "address",
          "name": "",
          "type": "address"
        }
      ],
      "name": "isOwner",
      "outputs": [
        {
          "internalType": "bool",
          "name": "",
          "type": "bool"
        }
      ],
      "stateMutability": "view",
      "type": "function"
    },
    {
      "inputs": [],
      "name": "numConfirmationsRequired",
      "outputs": [
        {
          "internalType": "uint256",
          "name": "",
          "type": "uint256"
        }
      ],
      "stateMutability": "view",
      "type": "function"
    },
    {
      "inputs": [
        {
          "internalType": "uint256",
          "name": "",
          "type": "uint256"
        }
      ],
      "name": "owners",
      "outputs": [
        {
          "internalType": "address",
          "name": "",
          "type": "address"
        }
      ],
      "stateMutability": "view",
      "type": "function"
    },
    {
      "inputs": [
        {
          "internalType": "uint256",
          "name": "_txIndex",
          "type": "uint256"
        }
      ],
      "name": "revokeConfirmation",
      "outputs": [],
      "stateMutability": "nonpayable",
      "type": "function"
    },
    {
      "inputs": [
        {
          "internalType": "address",
          "name": "_to",
          "type": "address"
        },
        {
          "internalType": "uint256",
          "name": "_value",
          "type": "uint256"
        },
        {
          "internalType": "bytes",
          "name": "_data",
          "type": "bytes"
        },
        {
          "internalType": "uint256",
          "name": "_expirationTime",
          "type": "uint256"
        }
      ],
      "name": "submitTransaction",
      "outputs": [],
      "stateMutability": "nonpayable",
      "type": "function"
    },
    {
      "inputs": [
        {
          "internalType": "uint256",
          "name": "",
          "type": "uint256"
        }
      ],
      "name": "transactions",
      "outputs": [
        {
          "internalType": "address",
          "name": "to",
          "type": "address"
        },
        {
          "internalType": "uint256",
          "name": "value",
          "type": "uint256"
        },
        {
          "internalType": "bytes",
          "name": "data",
          "type": "bytes"
        },
        {
          "internalType": "bool",
          "name": "executed",
          "type": "bool"
        },
        {
          "internalType": "uint256",
          "name": "numConfirmations",
          "type": "uint256"
        },
        {
          "internalType": "uint256",
          "name": "expirationTime",
          "type": "uint256"
        }
      ],
      "stateMutability": "view",
      "type": "function"
    },
    {
      "stateMutability": "payable",
      "type": "receive"
    }
  ],
  "bytecode": "0x60806040523480156200001157600080fd5b506040516200160f3803806200160f833981016040819052620000349162000281565b60008251116200007d5760405162461bcd60e51b815260206004820152600f60248201526e1bdddb995c9cc81c995c5d5a5c9959608a1b60448201526064015b60405180910390fd5b6000811180156200008f575081518111155b620000ee5760405162461bcd60e51b815260206004820152602860248201527f696e76616c6964206e756d626572206f6620726571756972656420636f6e6669604482015267726d6174696f6e7360c01b606482015260840162000074565b60005b8251811015620002435760008382815181106200011257620001126200035b565b6020026020010151905060006001600160a01b0316816001600160a01b031603620001705760405162461bcd60e51b815260206004820152600d60248201526c34b73b30b634b21037bbb732b960991b604482015260640162000074565b6001600160a01b03811660009081526001602052604090205460ff1615620001ce5760405162461bcd60e51b815260206004820152601060248201526f6f776e6572206e6f7420756e6971756560801b604482015260640162000074565b6001600160a01b031660008181526001602081905260408220805460ff191682179055815490810182559080527f290decd9548b62a8d60345a988386fc84ba6bc95484008f6362f93160ef3e5630180546001600160a01b0319169091179055806200023a8162000371565b915050620000f1565b506002555062000399565b634e487b7160e01b600052604160045260246000fd5b80516001600160a01b03811681146200027c57600080fd5b919050565b600080604083850312156200029557600080fd5b82516001600160401b0380821115620002ad57600080fd5b818501915085601f830112620002c257600080fd5b8151602082821115620002d957620002d96200024e565b8160051b604051601f19603f830116810181811086821117156200030157620003016200024e565b6040529283528183019350848101820192898411156200032057600080fd5b948201945b838610156200034957620003398662000264565b8552948201949382019362000325565b97909101519698969750505050505050565b634e487b7160e01b600052603260045260246000fd5b6000600182016200039257634e487b7160e01b600052601160045260246000fd5b5060010190565b61126680620003a96000396000f3fe6080604052600436106100ab5760003560e01c806380f59a651161006457806380f59a65146102015780639ace38c21461023c578063a0e67e2b1461025c578063c01a8c841461027e578063d0549b851461029e578063ee22610b146102b457600080fd5b8063025e7c27146100f15780630d59b5641461012e57806320ea8d86146101505780632e7700f0146101705780632f54bf6e1461018f57806333ea3dc8146101cf57600080fd5b366100ec576040805134815247602082015233917f90890809c654f11d6e72a28fa60149770a0d11ec6c92319d6ceb2bb0a4ea1a15910160405180910390a2005b600080fd5b3480156100fd57600080fd5b5061011161010c366004610d39565b6102d4565b6040516001600160a01b0390911681526020015b60405180910390f35b34801561013a57600080fd5b5061014e610149366004610d84565b6102fe565b005b34801561015c57600080fd5b5061014e61016b366004610d39565b6104ff565b34801561017c57600080fd5b506004545b604051908152602001610125565b34801561019b57600080fd5b506101bf6101aa366004610e57565b60016020526000908152604090205460ff1681565b6040519015158152602001610125565b3480156101db57600080fd5b506101ef6101ea366004610d39565b610682565b60405161012596959493929190610ebf565b34801561020d57600080fd5b506101bf61021c366004610f04565b600360209081526000928352604080842090915290825290205460ff1681565b34801561024857600080fd5b506101ef610257366004610d39565b610785565b34801561026857600080fd5b50610271610866565b6040516101259190610f30565b34801561028a57600080fd5b5061014e610299366004610d39565b6108c8565b3480156102aa57600080fd5b5061018160025481565b3480156102c057600080fd5b5061014e6102cf366004610d39565b610ace565b600081815481106102e457600080fd5b6000918252602090912001546001600160a01b0316905081565b3360009081526001602052604090205460ff166103365760405162461bcd60e51b815260040161032d90610f7d565b60405180910390fd5b80158061034257504281115b61039c5760405162461bcd60e51b815260206004820152602560248201527f65787069726174696f6e2074696d65206d75737420626520696e207468652066604482015264757475726560d81b606482015260840161032d565b600480546040805160c0810182526001600160a01b038881168252602082018881529282018781526000606084018190526080840181905260a084018890526001860187559590955281517f8a35acfbc15ff81a39ae7d344fd709f28e8600b4aa8c65c6b64bfe7fe36bd19b6006860290810180546001600160a01b0319169290931691909117825592517f8a35acfbc15ff81a39ae7d344fd709f28e8600b4aa8c65c6b64bfe7fe36bd19c84015593519293909290917f8a35acfbc15ff81a39ae7d344fd709f28e8600b4aa8c65c6b64bfe7fe36bd19d01906104809082611029565b50606082015160038201805460ff19169115159190911790556080820151600482015560a0909101516005909101556040516001600160a01b03861690829033907fd5a05bf70715ad82a09a756320284a1b54c9ff74cd0f8cce6219e79b563fe59d906104f090899089906110e9565b60405180910390a45050505050565b3360009081526001602052604090205460ff1661052e5760405162461bcd60e51b815260040161032d90610f7d565b600454819081106105515760405162461bcd60e51b815260040161032d9061110a565b816004818154811061056557610565611135565b600091825260209091206003600690920201015460ff16156105995760405162461bcd60e51b815260040161032d9061114b565b600083815260036020908152604080832033845290915290205460ff166105f55760405162461bcd60e51b815260206004820152601060248201526f1d1e081b9bdd0818dbdb999a5c9b595960821b604482015260640161032d565b60006004848154811061060a5761060a611135565b90600052602060002090600602019050600181600401600082825461062f919061118e565b90915550506000848152600360209081526040808320338085529252808320805460ff191690555186927ff0dca620e2e81f7841d07bcc105e1704fb01475b278a9d4c236e1c62945edd5591a350505050565b6000806060600080600080600488815481106106a0576106a0611135565b60009182526020909120600690910201805460018201546003830154600484015460058501546002860180549697506001600160a01b039095169593949360ff9093169284906106ef90610fa0565b80601f016020809104026020016040519081016040528092919081815260200182805461071b90610fa0565b80156107685780601f1061073d57610100808354040283529160200191610768565b820191906000526020600020905b81548152906001019060200180831161074b57829003601f168201915b505050505093509650965096509650965096505091939550919395565b6004818154811061079557600080fd5b60009182526020909120600690910201805460018201546002830180546001600160a01b0390931694509092916107cb90610fa0565b80601f01602080910402602001604051908101604052809291908181526020018280546107f790610fa0565b80156108445780601f1061081957610100808354040283529160200191610844565b820191906000526020600020905b81548152906001019060200180831161082757829003601f168201915b5050505060038301546004840154600590940154929360ff9091169290915086565b606060008054806020026020016040519081016040528092919081815260200182805480156108be57602002820191906000526020600020905b81546001600160a01b031681526001909101906020018083116108a0575b5050505050905090565b3360009081526001602052604090205460ff166108f75760405162461bcd60e51b815260040161032d90610f7d565b6004548190811061091a5760405162461bcd60e51b815260040161032d9061110a565b816004818154811061092e5761092e611135565b600091825260209091206003600690920201015460ff16156109625760405162461bcd60e51b815260040161032d9061114b565b8260006004828154811061097857610978611135565b9060005260206000209060060201905080600501546000148061099f575080600501544211155b6109d85760405162461bcd60e51b815260206004820152600a6024820152691d1e08195e1c1a5c995960b21b604482015260640161032d565b6000858152600360209081526040808320338452909152902054859060ff1615610a3b5760405162461bcd60e51b81526020600482015260146024820152731d1e08185b1c9958591e4818dbdb999a5c9b595960621b604482015260640161032d565b600060048781548110610a5057610a50611135565b906000526020600020906006020190506001816004016000828254610a7591906111a7565b90915550506000878152600360209081526040808320338085529252808320805460ff191660011790555189927f5cbe105e36805f7820e291f799d5794ff948af2a5f664e580382defb6339004191a350505050505050565b3360009081526001602052604090205460ff16610afd5760405162461bcd60e51b815260040161032d90610f7d565b60045481908110610b205760405162461bcd60e51b815260040161032d9061110a565b8160048181548110610b3457610b34611135565b600091825260209091206003600690920201015460ff1615610b685760405162461bcd60e51b815260040161032d9061114b565b82600060048281548110610b7e57610b7e611135565b90600052602060002090600602019050806005015460001480610ba5575080600501544211155b610bde5760405162461bcd60e51b815260206004820152600a6024820152691d1e08195e1c1a5c995960b21b604482015260640161032d565b600060048681548110610bf357610bf3611135565b9060005260206000209060060201905060025481600401541015610c4d5760405162461bcd60e51b81526020600482015260116024820152700c6c2dcdcdee840caf0cac6eae8ca40e8f607b1b604482015260640161032d565b60038101805460ff191660019081179091558154908201546040516000926001600160a01b03169190610c849060028601906111ba565b60006040518083038185875af1925050503d8060008114610cc1576040519150601f19603f3d011682016040523d82523d6000602084013e610cc6565b606091505b5050905080610d035760405162461bcd60e51b81526020600482015260096024820152681d1e0819985a5b195960ba1b604482015260640161032d565b604051879033907f5445f318f4f5fcfb66592e68e0cc5822aa15664039bd5f0ffde24c5a8142b1ac90600090a350505050505050565b600060208284031215610d4b57600080fd5b5035919050565b80356001600160a01b0381168114610d6957600080fd5b919050565b634e487b7160e01b600052604160045260246000fd5b60008060008060808587031215610d9a57600080fd5b610da385610d52565b935060208501359250604085013567ffffffffffffffff80821115610dc757600080fd5b818701915087601f830112610ddb57600080fd5b813581811115610ded57610ded610d6e565b604051601f8201601f19908116603f01168101908382118183101715610e1557610e15610d6e565b816040528281528a6020848701011115610e2e57600080fd5b826020860160208301376000928101602001929092525095989497509495606001359450505050565b600060208284031215610e6957600080fd5b610e7282610d52565b9392505050565b6000815180845260005b81811015610e9f57602081850181015186830182015201610e83565b506000602082860101526020601f19601f83011685010191505092915050565b60018060a01b038716815285602082015260c060408201526000610ee660c0830187610e79565b941515606083015250608081019290925260a0909101529392505050565b60008060408385031215610f1757600080fd5b82359150610f2760208401610d52565b90509250929050565b6020808252825182820181905260009190848201906040850190845b81811015610f715783516001600160a01b031683529284019291840191600101610f4c565b50909695505050505050565b6020808252600990820152683737ba1037bbb732b960b91b604082015260600190565b600181811c90821680610fb457607f821691505b602082108103610fd457634e487b7160e01b600052602260045260246000fd5b50919050565b601f82111561102457600081815260208120601f850160051c810160208610156110015750805b601f850160051c820191505b818110156110205782815560010161100d565b5050505b505050565b815167ffffffffffffffff81111561104357611043610d6e565b611057816110518454610fa0565b84610fda565b602080601f83116001811461108c57600084156110745750858301515b600019600386901b1c1916600185901b178555611020565b600085815260208120601f198616915b828110156110bb5788860151825594840194600190910190840161109c565b50858210156110d95787850151600019600388901b60f8161c191681555b5050505050600190811b01905550565b8281526040602082015260006111026040830184610e79565b949350505050565b6020808252601190820152701d1e08191bd95cc81b9bdd08195e1a5cdd607a1b604082015260600190565b634e487b7160e01b600052603260045260246000fd5b6020808252601390820152721d1e08185b1c9958591e48195e1958dd5d1959606a1b604082015260600190565b634e487b7160e01b600052601160045260246000fd5b818103818111156111a1576111a1611178565b92915050565b808201808211156111a1576111a1611178565b60008083546111c881610fa0565b600182811680156111e057600181146111f557611224565b60ff1984168752821515830287019450611224565b8760005260208060002060005b8581101561121b5781548a820152908401908201611202565b50505082870194505b5092969550505050505056fea2646970667358221220d611055b33bb39d4beb01c0c00435fbcf2b03cc8ea3686f368912de1bbaabd1d64736f6c63430008130033",
  "linkReferences": {},
  "deployedLinkReferences": {}
}